:1000000014C019C018C017C016C015C014C013C042
:1000100012C011C010C00FC00EC00DC00CC00BC06C
:100020000AC009C008C007C006C011241FBECFED1A
:10003000CDBF02D02BC0E4CFBB9A82E88FBD8AE14E
:100040008EBD83EC99E095BD84BD8CEB90E09BBDAB
:100050008ABD8DE790E09BBD8ABDE7E8F3E131976B
:10006000F1F700C0000005968F3F9105A1F78AEFD8
:1000700090E09BBD8ABDE7E8F3E13197F1F700C05E
:100080000000059788379105A1F7E3CFF894FFCFDB
:00000001FF
